{
  "contractName": "NFT",
  "abi": [
    {
      "inputs": [],
      "stateMutability": "nonpayable",
      "type": "constructor"
    },
    {
      "anonymous": false,
      "inputs": [
        {
          "indexed": true,
          "internalType": "address",
          "name": "owner",
          "type": "address"
        },
        {
          "indexed": true,
          "internalType": "address",
          "name": "approved",
          "type": "address"
        },
        {
          "indexed": true,
          "internalType": "uint256",
          "name": "tokenId",
          "type": "uint256"
        }
      ],
      "name": "Approval",
      "type": "event"
    },
    {
      "anonymous": false,
      "inputs": [
        {
          "indexed": true,
          "internalType": "address",
          "name": "owner",
          "type": "address"
        },
        {
          "indexed": true,
          "internalType": "address",
          "name": "operator",
          "type": "address"
        },
        {
          "indexed": false,
          "internalType": "bool",
          "name": "approved",
          "type": "bool"
        }
      ],
      "name": "ApprovalForAll",
      "type": "event"
    },
    {
      "anonymous": false,
      "inputs": [
        {
          "indexed": true,
          "internalType": "address",
          "name": "previousOwner",
          "type": "address"
        },
        {
          "indexed": true,
          "internalType": "address",
          "name": "newOwner",
          "type": "address"
        }
      ],
      "name": "OwnershipTransferred",
      "type": "event"
    },
    {
      "anonymous": false,
      "inputs": [
        {
          "indexed": true,
          "internalType": "address",
          "name": "from",
          "type": "address"
        },
        {
          "indexed": true,
          "internalType": "address",
          "name": "to",
          "type": "address"
        },
        {
          "indexed": true,
          "internalType": "uint256",
          "name": "tokenId",
          "type": "uint256"
        }
      ],
      "name": "Transfer",
      "type": "event"
    },
    {
      "inputs": [],
      "name": "admin",
      "outputs": [
        {
          "internalType": "address",
          "name": "",
          "type": "address"
        }
      ],
      "stateMutability": "view",
      "type": "function",
      "constant": true
    },
    {
      "inputs": [
        {
          "internalType": "address",
          "name": "to",
          "type": "address"
        },
        {
          "internalType": "uint256",
          "name": "tokenId",
          "type": "uint256"
        }
      ],
      "name": "approve",
      "outputs": [],
      "stateMutability": "nonpayable",
      "type": "function"
    },
    {
      "inputs": [
        {
          "internalType": "address",
          "name": "owner",
          "type": "address"
        }
      ],
      "name": "balanceOf",
      "outputs": [
        {
          "internalType": "uint256",
          "name": "",
          "type": "uint256"
        }
      ],
      "stateMutability": "view",
      "type": "function",
      "constant": true
    },
    {
      "inputs": [
        {
          "internalType": "uint256",
          "name": "tokenId",
          "type": "uint256"
        }
      ],
      "name": "getApproved",
      "outputs": [
        {
          "internalType": "address",
          "name": "",
          "type": "address"
        }
      ],
      "stateMutability": "view",
      "type": "function",
      "constant": true
    },
    {
      "inputs": [
        {
          "internalType": "address",
          "name": "owner",
          "type": "address"
        },
        {
          "internalType": "address",
          "name": "operator",
          "type": "address"
        }
      ],
      "name": "isApprovedForAll",
      "outputs": [
        {
          "internalType": "bool",
          "name": "",
          "type": "bool"
        }
      ],
      "stateMutability": "view",
      "type": "function",
      "constant": true
    },
    {
      "inputs": [],
      "name": "name",
      "outputs": [
        {
          "internalType": "string",
          "name": "",
          "type": "string"
        }
      ],
      "stateMutability": "view",
      "type": "function",
      "constant": true
    },
    {
      "inputs": [],
      "name": "nextTokenId",
      "outputs": [
        {
          "internalType": "uint256",
          "name": "",
          "type": "uint256"
        }
      ],
      "stateMutability": "view",
      "type": "function",
      "constant": true
    },
    {
      "inputs": [],
      "name": "owner",
      "outputs": [
        {
          "internalType": "address",
          "name": "",
          "type": "address"
        }
      ],
      "stateMutability": "view",
      "type": "function",
      "constant": true
    },
    {
      "inputs": [
        {
          "internalType": "uint256",
          "name": "tokenId",
          "type": "uint256"
        }
      ],
      "name": "ownerOf",
      "outputs": [
        {
          "internalType": "address",
          "name": "",
          "type": "address"
        }
      ],
      "stateMutability": "view",
      "type": "function",
      "constant": true
    },
    {
      "inputs": [],
      "name": "renounceOwnership",
      "outputs": [],
      "stateMutability": "nonpayable",
      "type": "function"
    },
    {
      "inputs": [
        {
          "internalType": "address",
          "name": "from",
          "type": "address"
        },
        {
          "internalType": "address",
          "name": "to",
          "type": "address"
        },
        {
          "internalType": "uint256",
          "name": "tokenId",
          "type": "uint256"
        }
      ],
      "name": "safeTransferFrom",
      "outputs": [],
      "stateMutability": "nonpayable",
      "type": "function"
    },
    {
      "inputs": [
        {
          "internalType": "address",
          "name": "from",
          "type": "address"
        },
        {
          "internalType": "address",
          "name": "to",
          "type": "address"
        },
        {
          "internalType": "uint256",
          "name": "tokenId",
          "type": "uint256"
        },
        {
          "internalType": "bytes",
          "name": "_data",
          "type": "bytes"
        }
      ],
      "name": "safeTransferFrom",
      "outputs": [],
      "stateMutability": "nonpayable",
      "type": "function"
    },
    {
      "inputs": [
        {
          "internalType": "address",
          "name": "operator",
          "type": "address"
        },
        {
          "internalType": "bool",
          "name": "approved",
          "type": "bool"
        }
      ],
      "name": "setApprovalForAll",
      "outputs": [],
      "stateMutability": "nonpayable",
      "type": "function"
    },
    {
      "inputs": [
        {
          "internalType": "bytes4",
          "name": "interfaceId",
          "type": "bytes4"
        }
      ],
      "name": "supportsInterface",
      "outputs": [
        {
          "internalType": "bool",
          "name": "",
          "type": "bool"
        }
      ],
      "stateMutability": "view",
      "type": "function",
      "constant": true
    },
    {
      "inputs": [],
      "name": "symbol",
      "outputs": [
        {
          "internalType": "string",
          "name": "",
          "type": "string"
        }
      ],
      "stateMutability": "view",
      "type": "function",
      "constant": true
    },
    {
      "inputs": [
        {
          "internalType": "uint256",
          "name": "tokenId",
          "type": "uint256"
        }
      ],
      "name": "tokenURI",
      "outputs": [
        {
          "internalType": "string",
          "name": "",
          "type": "string"
        }
      ],
      "stateMutability": "view",
      "type": "function",
      "constant": true
    },
    {
      "inputs": [
        {
          "internalType": "address",
          "name": "from",
          "type": "address"
        },
        {
          "internalType": "address",
          "name": "to",
          "type": "address"
        },
        {
          "internalType": "uint256",
          "name": "tokenId",
          "type": "uint256"
        }
      ],
      "name": "transferFrom",
      "outputs": [],
      "stateMutability": "nonpayable",
      "type": "function"
    },
    {
      "inputs": [
        {
          "internalType": "address",
          "name": "newOwner",
          "type": "address"
        }
      ],
      "name": "transferOwnership",
      "outputs": [],
      "stateMutability": "nonpayable",
      "type": "function"
    },
    {
      "inputs": [
        {
          "internalType": "string",
          "name": "baseURI",
          "type": "string"
        }
      ],
      "name": "setBaseURI",
      "outputs": [],
      "stateMutability": "nonpayable",
      "type": "function"
    },
    {
      "inputs": [
        {
          "internalType": "address",
          "name": "_to",
          "type": "address"
        }
      ],
      "name": "mint",
      "outputs": [],
      "stateMutability": "payable",
      "type": "function",
      "payable": true
    },
    {
      "inputs": [
        {
          "internalType": "address",
          "name": "_to",
          "type": "address"
        }
      ],
      "name": "claim",
      "outputs": [],
      "stateMutability": "payable",
      "type": "function",
      "payable": true
    }
  ],
  "bytecode": "0x60806040523480156200001157600080fd5b506040518060400160405280600681526020017f4d79204e465400000000000000000000000000000000000000000000000000008152506040518060400160405280600381526020017f4e46540000000000000000000000000000000000000000000000000000000000815250600062000090620001d360201b60201c565b9050806000806101000a81548173ffffffffffffffffffffffffffffffffffffffff021916908373ffffffffffffffffffffffffffffffffffffffff1602179055508073ffffffffffffffffffffffffffffffffffffffff16600073ffffffffffffffffffffffffffffffffffffffff167f8be0079c531659141344cd1fd0a4f28419497f9722a3daafe3b4186f6b6457e060405160405180910390a350816001908051906020019062000146929190620002af565b5080600290805190602001906200015f929190620002af565b50505033600860006101000a81548173ffffffffffffffffffffffffffffffffffffffff021916908373ffffffffffffffffffffffffffffffffffffffff160217905550620001cd6040518060600160405280602c81526020016200354c602c9139620001db60201b60201c565b62000439565b600033905090565b620001eb620001d360201b60201c565b73ffffffffffffffffffffffffffffffffffffffff16620002116200028660201b60201c565b73ffffffffffffffffffffffffffffffffffffffff16146200026a576040517f08c379a00000000000000000000000000000000000000000000000000000000081526004016200026190620003a1565b60405180910390fd5b806009908051906020019062000282929190620002af565b5050565b60008060009054906101000a900473ffffffffffffffffffffffffffffffffffffffff16905090565b828054620002bd90620003d4565b90600052602060002090601f016020900481019282620002e157600085556200032d565b82601f10620002fc57805160ff19168380011785556200032d565b828001600101855582156200032d579182015b828111156200032c5782518255916020019190600101906200030f565b5b5090506200033c919062000340565b5090565b5b808211156200035b57600081600090555060010162000341565b5090565b60006200036e602083620003c3565b91507f4f776e61626c653a2063616c6c6572206973206e6f7420746865206f776e65726000830152602082019050919050565b60006020820190508181036000830152620003bc816200035f565b9050919050565b600082825260208201905092915050565b60006002820490506001821680620003ed57607f821691505b602082108114156200040457620004036200040a565b5b50919050565b7f4e487b7100000000000000000000000000000000000000000000000000000000600052602260045260246000fd5b61310380620004496000396000f3fe60806040526004361061012a5760003560e01c806370a08231116100ab578063a22cb4651161006f578063a22cb465146103c2578063b88d4fde146103eb578063c87b56dd14610414578063e985e9c514610451578063f2fde38b1461048e578063f851a440146104b75761012a565b806370a08231146102ed578063715018a61461032a57806375794a3c146103415780638da5cb5b1461036c57806395d89b41146103975761012a565b806323b872dd116100f257806323b872dd1461021957806342842e0e1461024257806355f804b31461026b5780636352211e146102945780636a627842146102d15761012a565b806301ffc9a71461012f57806306fdde031461016c578063081812fc14610197578063095ea7b3146101d45780631e83409a146101fd575b600080fd5b34801561013b57600080fd5b50610156600480360381019061015191906121bc565b6104e2565b6040516101639190612a1b565b60405180910390f35b34801561017857600080fd5b506101816105c4565b60405161018e9190612a36565b60405180910390f35b3480156101a357600080fd5b506101be60048036038101906101b9919061224f565b610656565b6040516101cb91906129b4565b60405180910390f35b3480156101e057600080fd5b506101fb60048036038101906101f69190612180565b6106db565b005b61021760048036038101906102129190612015565b6107f3565b005b34801561022557600080fd5b50610240600480360381019061023b919061207a565b6108b8565b005b34801561024e57600080fd5b506102696004803603810190610264919061207a565b610918565b005b34801561027757600080fd5b50610292600480360381019061028d919061220e565b610938565b005b3480156102a057600080fd5b506102bb60048036038101906102b6919061224f565b6109ce565b6040516102c891906129b4565b60405180910390f35b6102eb60048036038101906102e69190612015565b610a80565b005b3480156102f957600080fd5b50610314600480360381019061030f9190612015565b610b37565b6040516103219190612c98565b60405180910390f35b34801561033657600080fd5b5061033f610bef565b005b34801561034d57600080fd5b50610356610d29565b6040516103639190612c98565b60405180910390f35b34801561037857600080fd5b50610381610d2f565b60405161038e91906129b4565b60405180910390f35b3480156103a357600080fd5b506103ac610d58565b6040516103b99190612a36565b60405180910390f35b3480156103ce57600080fd5b506103e960048036038101906103e49190612144565b610dea565b005b3480156103f757600080fd5b50610412600480360381019061040d91906120c9565b610f6b565b005b34801561042057600080fd5b5061043b6004803603810190610436919061224f565b610fcd565b6040516104489190612a36565b60405180910390f35b34801561045d57600080fd5b506104786004803603810190610473919061203e565b611074565b6040516104859190612a1b565b60405180910390f35b34801561049a57600080fd5b506104b560048036038101906104b09190612015565b611108565b005b3480156104c357600080fd5b506104cc6112b1565b6040516104d991906129b4565b60405180910390f35b60007f80ac58cd000000000000000000000000000000000000000000000000000000007bffffffffffffffffffffffffffffffffffffffffffffffffffffffff1916827bffffffffffffffffffffffffffffffffffffffffffffffffffffffff191614806105ad57507f5b5e139f000000000000000000000000000000000000000000000000000000007bffffffffffffffffffffffffffffffffffffffffffffffffffffffff1916827bffffffffffffffffffffffffffffffffffffffffffffffffffffffff1916145b806105bd57506105bc826112d7565b5b9050919050565b6060600180546105d390612ef8565b80601f01602080910402602001604051908101604052809291908181526020018280546105ff90612ef8565b801561064c5780601f106106215761010080835404028352916020019161064c565b820191906000526020600020905b81548152906001019060200180831161062f57829003601f168201915b5050505050905090565b600061066182611341565b6106a0576040517f08c379a000000000000000000000000000000000000000000000000000000000815260040161069790612bd8565b60405180910390fd5b6005600083815260200190815260200160002060009054906101000a900473ffffffffffffffffffffffffffffffffffffffff169050919050565b60006106e6826109ce565b90508073ffffffffffffffffffffffffffffffffffffffff168373ffffffffffffffffffffffffffffffffffffffff161415610757576040517f08c379a000000000000000000000000000000000000000000000000000000000815260040161074e90612c58565b60405180910390fd5b8073ffffffffffffffffffffffffffffffffffffffff166107766113ad565b73ffffffffffffffffffffffffffffffffffffffff1614806107a557506107a48161079f6113ad565b611074565b5b6107e4576040517f08c379a00000000000000000000000000000000000000000000000000000000081526004016107db90612b58565b60405180910390fd5b6107ee83836113b5565b505050565b662386f26fc10000341461083c576040517f08c379a000000000000000000000000000000000000000000000000000000000815260040161083390612ab8565b60405180910390fd5b6108488160075461146e565b610850610d2f565b73ffffffffffffffffffffffffffffffffffffffff166108fc662386f26fc100009081150290604051600060405180830381858888f1935050505015801561089c573d6000803e3d6000fd5b50600760008154809291906108b090612f2a565b919050555050565b6108c96108c36113ad565b8261148c565b610908576040517f08c379a00000000000000000000000000000000000000000000000000000000081526004016108ff90612c78565b60405180910390fd5b61091383838361156a565b505050565b61093383838360405180602001604052806000815250610f6b565b505050565b6109406113ad565b73ffffffffffffffffffffffffffffffffffffffff1661095e610d2f565b73ffffffffffffffffffffffffffffffffffffffff16146109b4576040517f08c379a00000000000000000000000000000000000000000000000000000000081526004016109ab90612bf8565b60405180910390fd5b80600990805190602001906109ca929190611e39565b5050565b6000806003600084815260200190815260200160002060009054906101000a900473ffffffffffffffffffffffffffffffffffffffff169050600073ffffffffffffffffffffffffffffffffffffffff168173ffffffffffffffffffffffffffffffffffffffff161415610a77576040517f08c379a0000000000000000000000000000000000000000000000000000000008152600401610a6e90612b98565b60405180910390fd5b80915050919050565b600860009054906101000a900473ffffffffffffffffffffffffffffffffffffffff1673ffffffffffffffffffffffffffffffffffffffff163373ffffffffffffffffffffffffffffffffffffffff1614610b10576040517f08c379a0000000000000000000000000000000000000000000000000000000008152600401610b0790612b18565b60405180910390fd5b610b1c8160075461146e565b60076000815480929190610b2f90612f2a565b919050555050565b60008073ffffffffffffffffffffffffffffffffffffffff168273ffffffffffffffffffffffffffffffffffffffff161415610ba8576040517f08c379a0000000000000000000000000000000000000000000000000000000008152600401610b9f90612b78565b60405180910390fd5b600460008373ffffffffffffffffffffffffffffffffffffffff1673ffffffffffffffffffffffffffffffffffffffff168152602001908152602001600020549050919050565b610bf76113ad565b73ffffffffffffffffffffffffffffffffffffffff16610c15610d2f565b73ffffffffffffffffffffffffffffffffffffffff1614610c6b576040517f08c379a0000000000000000000000000000000000000000000000000000000008152600401610c6290612bf8565b60405180910390fd5b600073ffffffffffffffffffffffffffffffffffffffff1660008054906101000a900473ffffffffffffffffffffffffffffffffffffffff1673ffffffffffffffffffffffffffffffffffffffff167f8be0079c531659141344cd1fd0a4f28419497f9722a3daafe3b4186f6b6457e060405160405180910390a360008060006101000a81548173ffffffffffffffffffffffffffffffffffffffff021916908373ffffffffffffffffffffffffffffffffffffffff160217905550565b60075481565b60008060009054906101000a900473ffffffffffffffffffffffffffffffffffffffff16905090565b606060028054610d6790612ef8565b80601f0160208091040260200160405190810160405280929190818152602001828054610d9390612ef8565b8015610de05780601f10610db557610100808354040283529160200191610de0565b820191906000526020600020905b815481529060010190602001808311610dc357829003601f168201915b5050505050905090565b610df26113ad565b73ffffffffffffffffffffffffffffffffffffffff168273ffffffffffffffffffffffffffffffffffffffff161415610e60576040517f08c379a0000000000000000000000000000000000000000000000000000000008152600401610e5790612af8565b60405180910390fd5b8060066000610e6d6113ad565b73ffffffffffffffffffffffffffffffffffffffff1673ffffffffffffffffffffffffffffffffffffffff16815260200190815260200160002060008473ffffffffffffffffffffffffffffffffffffffff1673ffffffffffffffffffffffffffffffffffffffff16815260200190815260200160002060006101000a81548160ff0219169083151502179055508173ffffffffffffffffffffffffffffffffffffffff16610f1a6113ad565b73ffffffffffffffffffffffffffffffffffffffff167f17307eab39ab6107e8899845ad3d59bd9653f200f220920489ca2b5937696c3183604051610f5f9190612a1b565b60405180910390a35050565b610f7c610f766113ad565b8361148c565b610fbb576040517f08c379a0000000000000000000000000000000000000000000000000000000008152600401610fb290612c78565b60405180910390fd5b610fc7848484846117c6565b50505050565b6060610fd882611341565b611017576040517f08c379a000000000000000000000000000000000000000000000000000000000815260040161100e90612c38565b60405180910390fd5b6000611021611822565b90506000815111611041576040518060200160405280600081525061106c565b8061104b846118b4565b60405160200161105c929190612990565b6040516020818303038152906040525b915050919050565b6000600660008473ffffffffffffffffffffffffffffffffffffffff1673ffffffffffffffffffffffffffffffffffffffff16815260200190815260200160002060008373ffffffffffffffffffffffffffffffffffffffff1673ffffffffffffffffffffffffffffffffffffffff16815260200190815260200160002060009054906101000a900460ff16905092915050565b6111106113ad565b73ffffffffffffffffffffffffffffffffffffffff1661112e610d2f565b73ffffffffffffffffffffffffffffffffffffffff1614611184576040517f08c379a000000000000000000000000000000000000000000000000000000000815260040161117b90612bf8565b60405180910390fd5b600073ffffffffffffffffffffffffffffffffffffffff168173ffffffffffffffffffffffffffffffffffffffff1614156111f4576040517f08c379a00000000000000000000000000000000000000000000000000000000081526004016111eb90612a78565b60405180910390fd5b8073ffffffffffffffffffffffffffffffffffffffff1660008054906101000a900473ffffffffffffffffffffffffffffffffffffffff1673ffffffffffffffffffffffffffffffffffffffff167f8be0079c531659141344cd1fd0a4f28419497f9722a3daafe3b4186f6b6457e060405160405180910390a3806000806101000a81548173ffffffffffffffffffffffffffffffffffffffff021916908373ffffffffffffffffffffffffffffffffffffffff16021790555050565b600860009054906101000a900473ffffffffffffffffffffffffffffffffffffffff1681565b60007f01ffc9a7000000000000000000000000000000000000000000000000000000007bffffffffffffffffffffffffffffffffffffffffffffffffffffffff1916827bffffffffffffffffffffffffffffffffffffffffffffffffffffffff1916149050919050565b60008073ffffffffffffffffffffffffffffffffffffffff166003600084815260200190815260200160002060009054906101000a900473ffffffffffffffffffffffffffffffffffffffff1673ffffffffffffffffffffffffffffffffffffffff1614159050919050565b600033905090565b816005600083815260200190815260200160002060006101000a81548173ffffffffffffffffffffffffffffffffffffffff021916908373ffffffffffffffffffffffffffffffffffffffff160217905550808273ffffffffffffffffffffffffffffffffffffffff16611428836109ce565b73ffffffffffffffffffffffffffffffffffffffff167f8c5be1e5ebec7d5bd14f71427d1e84f3dd0314c0f7b2291e5b200ac8c7c3b92560405160405180910390a45050565b611488828260405180602001604052806000815250611a61565b5050565b600061149782611341565b6114d6576040517f08c379a00000000000000000000000000000000000000000000000000000000081526004016114cd90612b38565b60405180910390fd5b60006114e1836109ce565b90508073ffffffffffffffffffffffffffffffffffffffff168473ffffffffffffffffffffffffffffffffffffffff16148061155057508373ffffffffffffffffffffffffffffffffffffffff1661153884610656565b73ffffffffffffffffffffffffffffffffffffffff16145b8061156157506115608185611074565b5b91505092915050565b8273ffffffffffffffffffffffffffffffffffffffff1661158a826109ce565b73ffffffffffffffffffffffffffffffffffffffff16146115e0576040517f08c379a00000000000000000000000000000000000000000000000000000000081526004016115d790612c18565b60405180910390fd5b600073ffffffffffffffffffffffffffffffffffffffff168273ffffffffffffffffffffffffffffffffffffffff161415611650576040517f08c379a000000000000000000000000000000000000000000000000000000000815260040161164790612ad8565b60405180910390fd5b61165b838383611abc565b6116666000826113b5565b6001600460008573ffffffffffffffffffffffffffffffffffffffff1673ffffffffffffffffffffffffffffffffffffffff16815260200190815260200160002060008282546116b69190612e0e565b925050819055506001600460008473ffffffffffffffffffffffffffffffffffffffff1673ffffffffffffffffffffffffffffffffffffffff168152602001908152602001600020600082825461170d9190612d87565b92505081905550816003600083815260200190815260200160002060006101000a81548173ffffffffffffffffffffffffffffffffffffffff021916908373ffffffffffffffffffffffffffffffffffffffff160217905550808273ffffffffffffffffffffffffffffffffffffffff168473ffffffffffffffffffffffffffffffffffffffff167fddf252ad1be2c89b69c2b068fc378daa952ba7f163c4a11628f55a4df523b3ef60405160405180910390a4505050565b6117d184848461156a565b6117dd84848484611ac1565b61181c576040517f08c379a000000000000000000000000000000000000000000000000000000000815260040161181390612a58565b60405180910390fd5b50505050565b60606009805461183190612ef8565b80601f016020809104026020016040519081016040528092919081815260200182805461185d90612ef8565b80156118aa5780601f1061187f576101008083540402835291602001916118aa565b820191906000526020600020905b81548152906001019060200180831161188d57829003601f168201915b5050505050905090565b606060008214156118fc576040518060400160405280600181526020017f30000000000000000000000000000000000000000000000000000000000000008152509050611a5c565b600082905060005b6000821461192e57808061191790612f2a565b915050600a826119279190612ddd565b9150611904565b60008167ffffffffffffffff811115611970577f4e487b7100000000000000000000000000000000000000000000000000000000600052604160045260246000fd5b6040519080825280601f01601f1916602001820160405280156119a25781602001600182028036833780820191505090505b5090505b60008514611a55576001826119bb9190612e0e565b9150600a856119ca9190612f73565b60306119d69190612d87565b60f81b818381518110611a12577f4e487b7100000000000000000000000000000000000000000000000000000000600052603260045260246000fd5b60200101907effffffffffffffffffffffffffffffffffffffffffffffffffffffffffffff1916908160001a905350600a85611a4e9190612ddd565b94506119a6565b8093505050505b919050565b611a6b8383611c58565b611a786000848484611ac1565b611ab7576040517f08c379a0000000000000000000000000000000000000000000000000000000008152600401611aae90612a58565b60405180910390fd5b505050565b505050565b6000611ae28473ffffffffffffffffffffffffffffffffffffffff16611e26565b15611c4b578373ffffffffffffffffffffffffffffffffffffffff1663150b7a02611b0b6113ad565b8786866040518563ffffffff1660e01b8152600401611b2d94939291906129cf565b602060405180830381600087803b158015611b4757600080fd5b505af1925050508015611b7857506040513d601f19601f82011682018060405250810190611b7591906121e5565b60015b611bfb573d8060008114611ba8576040519150601f19603f3d011682016040523d82523d6000602084013e611bad565b606091505b50600081511415611bf3576040517f08c379a0000000000000000000000000000000000000000000000000000000008152600401611bea90612a58565b60405180910390fd5b805181602001fd5b63150b7a0260e01b7bffffffffffffffffffffffffffffffffffffffffffffffffffffffff1916817bffffffffffffffffffffffffffffffffffffffffffffffffffffffff191614915050611c50565b600190505b949350505050565b600073ffffffffffffffffffffffffffffffffffffffff168273ffffffffffffffffffffffffffffffffffffffff161415611cc8576040517f08c379a0000000000000000000000000000000000000000000000000000000008152600401611cbf90612bb8565b60405180910390fd5b611cd181611341565b15611d11576040517f08c379a0000000000000000000000000000000000000000000000000000000008152600401611d0890612a98565b60405180910390fd5b611d1d60008383611abc565b6001600460008473ffffffffffffffffffffffffffffffffffffffff1673ffffffffffffffffffffffffffffffffffffffff1681526020019081526020016000206000828254611d6d9190612d87565b92505081905550816003600083815260200190815260200160002060006101000a81548173ffffffffffffffffffffffffffffffffffffffff021916908373ffffffffffffffffffffffffffffffffffffffff160217905550808273ffffffffffffffffffffffffffffffffffffffff16600073ffffffffffffffffffffffffffffffffffffffff167fddf252ad1be2c89b69c2b068fc378daa952ba7f163c4a11628f55a4df523b3ef60405160405180910390a45050565b600080823b905060008111915050919050565b828054611e4590612ef8565b90600052602060002090601f016020900481019282611e675760008555611eae565b82601f10611e8057805160ff1916838001178555611eae565b82800160010185558215611eae579182015b82811115611ead578251825591602001919060010190611e92565b5b509050611ebb9190611ebf565b5090565b5b80821115611ed8576000816000905550600101611ec0565b5090565b6000611eef611eea84612ce4565b612cb3565b905082815260208101848484011115611f0757600080fd5b611f12848285612eb6565b509392505050565b6000611f2d611f2884612d14565b612cb3565b905082815260208101848484011115611f4557600080fd5b611f50848285612eb6565b509392505050565b600081359050611f6781613071565b92915050565b600081359050611f7c81613088565b92915050565b600081359050611f918161309f565b92915050565b600081519050611fa68161309f565b92915050565b600082601f830112611fbd57600080fd5b8135611fcd848260208601611edc565b91505092915050565b600082601f830112611fe757600080fd5b8135611ff7848260208601611f1a565b91505092915050565b60008135905061200f816130b6565b92915050565b60006020828403121561202757600080fd5b600061203584828501611f58565b91505092915050565b6000806040838503121561205157600080fd5b600061205f85828601611f58565b925050602061207085828601611f58565b9150509250929050565b60008060006060848603121561208f57600080fd5b600061209d86828701611f58565b93505060206120ae86828701611f58565b92505060406120bf86828701612000565b9150509250925092565b600080600080608085870312156120df57600080fd5b60006120ed87828801611f58565b94505060206120fe87828801611f58565b935050604061210f87828801612000565b925050606085013567ffffffffffffffff81111561212c57600080fd5b61213887828801611fac565b91505092959194509250565b6000806040838503121561215757600080fd5b600061216585828601611f58565b925050602061217685828601611f6d565b9150509250929050565b6000806040838503121561219357600080fd5b60006121a185828601611f58565b92505060206121b285828601612000565b9150509250929050565b6000602082840312156121ce57600080fd5b60006121dc84828501611f82565b91505092915050565b6000602082840312156121f757600080fd5b600061220584828501611f97565b91505092915050565b60006020828403121561222057600080fd5b600082013567ffffffffffffffff81111561223a57600080fd5b61224684828501611fd6565b91505092915050565b60006020828403121561226157600080fd5b600061226f84828501612000565b91505092915050565b61228181612e42565b82525050565b61229081612e54565b82525050565b60006122a182612d44565b6122ab8185612d5a565b93506122bb818560208601612ec5565b6122c481613060565b840191505092915050565b60006122da82612d4f565b6122e48185612d6b565b93506122f4818560208601612ec5565b6122fd81613060565b840191505092915050565b600061231382612d4f565b61231d8185612d7c565b935061232d818560208601612ec5565b80840191505092915050565b6000612346603283612d6b565b91507f4552433732313a207472616e7366657220746f206e6f6e20455243373231526560008301527f63656976657220696d706c656d656e74657200000000000000000000000000006020830152604082019050919050565b60006123ac602683612d6b565b91507f4f776e61626c653a206e6577206f776e657220697320746865207a65726f206160008301527f64647265737300000000000000000000000000000000000000000000000000006020830152604082019050919050565b6000612412601c83612d6b565b91507f4552433732313a20746f6b656e20616c7265616479206d696e746564000000006000830152602082019050919050565b6000612452601f83612d6b565b91507f636c61696d696e672061206461746520636f7374732031302066696e6e6579006000830152602082019050919050565b6000612492602483612d6b565b91507f4552433732313a207472616e7366657220746f20746865207a65726f2061646460008301527f72657373000000000000000000000000000000000000000000000000000000006020830152604082019050919050565b60006124f8601983612d6b565b91507f4552433732313a20617070726f766520746f2063616c6c6572000000000000006000830152602082019050919050565b6000612538600a83612d6b565b91507f6f6e6c792061646d696e000000000000000000000000000000000000000000006000830152602082019050919050565b6000612578602c83612d6b565b91507f4552433732313a206f70657261746f7220717565727920666f72206e6f6e657860008301527f697374656e7420746f6b656e00000000000000000000000000000000000000006020830152604082019050919050565b60006125de603883612d6b565b91507f4552433732313a20617070726f76652063616c6c6572206973206e6f74206f7760008301527f6e6572206e6f7220617070726f76656420666f7220616c6c00000000000000006020830152604082019050919050565b6000612644602a83612d6b565b91507f4552433732313a2062616c616e636520717565727920666f7220746865207a6560008301527f726f2061646472657373000000000000000000000000000000000000000000006020830152604082019050919050565b60006126aa602983612d6b565b91507f4552433732313a206f776e657220717565727920666f72206e6f6e657869737460008301527f656e7420746f6b656e00000000000000000000000000000000000000000000006020830152604082019050919050565b6000612710602083612d6b565b91507f4552433732313a206d696e7420746f20746865207a65726f20616464726573736000830152602082019050919050565b6000612750602c83612d6b565b91507f4552433732313a20617070726f76656420717565727920666f72206e6f6e657860008301527f697374656e7420746f6b656e00000000000000000000000000000000000000006020830152604082019050919050565b60006127b6602083612d6b565b91507f4f776e61626c653a2063616c6c6572206973206e6f7420746865206f776e65726000830152602082019050919050565b60006127f6602983612d6b565b91507f4552433732313a207472616e73666572206f6620746f6b656e2074686174206960008301527f73206e6f74206f776e00000000000000000000000000000000000000000000006020830152604082019050919050565b600061285c602f83612d6b565b91507f4552433732314d657461646174613a2055524920717565727920666f72206e6f60008301527f6e6578697374656e7420746f6b656e00000000000000000000000000000000006020830152604082019050919050565b60006128c2602183612d6b565b91507f4552433732313a20617070726f76616c20746f2063757272656e74206f776e6560008301527f72000000000000000000000000000000000000000000000000000000000000006020830152604082019050919050565b6000612928603183612d6b565b91507f4552433732313a207472616e736665722063616c6c6572206973206e6f74206f60008301527f776e6572206e6f7220617070726f7665640000000000000000000000000000006020830152604082019050919050565b61298a81612eac565b82525050565b600061299c8285612308565b91506129a88284612308565b91508190509392505050565b60006020820190506129c96000830184612278565b92915050565b60006080820190506129e46000830187612278565b6129f16020830186612278565b6129fe6040830185612981565b8181036060830152612a108184612296565b905095945050505050565b6000602082019050612a306000830184612287565b92915050565b60006020820190508181036000830152612a5081846122cf565b905092915050565b60006020820190508181036000830152612a7181612339565b9050919050565b60006020820190508181036000830152612a918161239f565b9050919050565b60006020820190508181036000830152612ab181612405565b9050919050565b60006020820190508181036000830152612ad181612445565b9050919050565b60006020820190508181036000830152612af181612485565b9050919050565b60006020820190508181036000830152612b11816124eb565b9050919050565b60006020820190508181036000830152612b318161252b565b9050919050565b60006020820190508181036000830152612b518161256b565b9050919050565b60006020820190508181036000830152612b71816125d1565b9050919050565b60006020820190508181036000830152612b9181612637565b9050919050565b60006020820190508181036000830152612bb18161269d565b9050919050565b60006020820190508181036000830152612bd181612703565b9050919050565b60006020820190508181036000830152612bf181612743565b9050919050565b60006020820190508181036000830152612c11816127a9565b9050919050565b60006020820190508181036000830152612c31816127e9565b9050919050565b60006020820190508181036000830152612c518161284f565b9050919050565b60006020820190508181036000830152612c71816128b5565b9050919050565b60006020820190508181036000830152612c918161291b565b9050919050565b6000602082019050612cad6000830184612981565b92915050565b6000604051905081810181811067ffffffffffffffff82111715612cda57612cd9613031565b5b8060405250919050565b600067ffffffffffffffff821115612cff57612cfe613031565b5b601f19601f8301169050602081019050919050565b600067ffffffffffffffff821115612d2f57612d2e613031565b5b601f19601f8301169050602081019050919050565b600081519050919050565b600081519050919050565b600082825260208201905092915050565b600082825260208201905092915050565b600081905092915050565b6000612d9282612eac565b9150612d9d83612eac565b9250827fffffffffffffffffffffffffffffffffffffffffffffffffffffffffffffffff03821115612dd257612dd1612fa4565b5b828201905092915050565b6000612de882612eac565b9150612df383612eac565b925082612e0357612e02612fd3565b5b828204905092915050565b6000612e1982612eac565b9150612e2483612eac565b925082821015612e3757612e36612fa4565b5b828203905092915050565b6000612e4d82612e8c565b9050919050565b60008115159050919050565b60007fffffffff0000000000000000000000000000000000000000000000000000000082169050919050565b600073ffffffffffffffffffffffffffffffffffffffff82169050919050565b6000819050919050565b82818337600083830152505050565b60005b83811015612ee3578082015181840152602081019050612ec8565b83811115612ef2576000848401525b50505050565b60006002820490506001821680612f1057607f821691505b60208210811415612f2457612f23613002565b5b50919050565b6000612f3582612eac565b91507fffffffffffffffffffffffffffffffffffffffffffffffffffffffffffffffff821415612f6857612f67612fa4565b5b600182019050919050565b6000612f7e82612eac565b9150612f8983612eac565b925082612f9957612f98612fd3565b5b828206905092915050565b7f4e487b7100000000000000000000000000000000000000000000000000000000600052601160045260246000fd5b7f4e487b7100000000000000000000000000000000000000000000000000000000600052601260045260246000fd5b7f4e487b7100000000000000000000000000000000000000000000000000000000600052602260045260246000fd5b7f4e487b7100000000000000000000000000000000000000000000000000000000600052604160045260246000fd5b6000601f19601f8301169050919050565b61307a81612e42565b811461308557600080fd5b50565b61309181612e54565b811461309c57600080fd5b50565b6130a881612e60565b81146130b357600080fd5b50565b6130bf81612eac565b81146130ca57600080fd5b5056fea2646970667358221220410e094951d503fb3f48ed894b0b2424db901c3dd62a8bc42514983f17572ec364736f6c6343000800003368747470733a2f2f70726f7465637465642d6f6365616e2d35353738332e6865726f6b756170702e636f6d2f",
  "immutableReferences": {},
  "source": "// SPDX-License-Identifier: MIT\npragma solidity >=0.4.22 <0.9.0;\n\nimport \"@openzeppelin/contracts/token/ERC721/ERC721.sol\";\nimport \"@openzeppelin/contracts/access/Ownable.sol\";\n\ncontract NFT is Ownable, ERC721 {\n    uint256 public nextTokenId;\n    address public admin;\n    string private _currentBaseURI;\n\n    constructor() ERC721(\"My NFT\", \"NFT\") {\n        admin = msg.sender;\n        setBaseURI(\"https://protected-ocean-55783.herokuapp.com/\");\n    }\n\n    function setBaseURI(string memory baseURI) public onlyOwner {\n        _currentBaseURI = baseURI;\n    }\n\n    function mint(address _to) external payable {\n        require(msg.sender == admin, \"only admin\");\n        _safeMint(_to, nextTokenId);\n        nextTokenId++;\n    }\n\n    function claim(address _to) external payable {\n        require(msg.value == 0.01 ether, \"claiming a date costs 10 finney\");\n        _safeMint(_to, nextTokenId);\n        payable(owner()).transfer(0.01 ether);\n        nextTokenId++;\n    }\n\n    function _baseURI() internal view virtual override returns (string memory) {\n        return _currentBaseURI;\n    }\n}\n",
  "sourcePath": "/Users/davidcingolani/eattheblocks/first-neft/contracts/NFT.sol",
  "compiler": {
    "name": "solc",
    "version": "0.8.0+commit.c7dfd78e.Emscripten.clang"
  },
  "schemaVersion": "3.4.3",
  "updatedAt": "2021-09-04T01:50:06.843Z",
  "networkType": "ethereum",
  "devdoc": {
    "kind": "dev",
    "methods": {
      "approve(address,uint256)": {
        "details": "See {IERC721-approve}."
      },
      "balanceOf(address)": {
        "details": "See {IERC721-balanceOf}."
      },
      "getApproved(uint256)": {
        "details": "See {IERC721-getApproved}."
      },
      "isApprovedForAll(address,address)": {
        "details": "See {IERC721-isApprovedForAll}."
      },
      "name()": {
        "details": "See {IERC721Metadata-name}."
      },
      "owner()": {
        "details": "Returns the address of the current owner."
      },
      "ownerOf(uint256)": {
        "details": "See {IERC721-ownerOf}."
      },
      "renounceOwnership()": {
        "details": "Leaves the contract without owner. It will not be possible to call `onlyOwner` functions anymore. Can only be called by the current owner. NOTE: Renouncing ownership will leave the contract without an owner, thereby removing any functionality that is only available to the owner."
      },
      "safeTransferFrom(address,address,uint256)": {
        "details": "See {IERC721-safeTransferFrom}."
      },
      "safeTransferFrom(address,address,uint256,bytes)": {
        "details": "See {IERC721-safeTransferFrom}."
      },
      "setApprovalForAll(address,bool)": {
        "details": "See {IERC721-setApprovalForAll}."
      },
      "supportsInterface(bytes4)": {
        "details": "See {IERC165-supportsInterface}."
      },
      "symbol()": {
        "details": "See {IERC721Metadata-symbol}."
      },
      "tokenURI(uint256)": {
        "details": "See {IERC721Metadata-tokenURI}."
      },
      "transferFrom(address,address,uint256)": {
        "details": "See {IERC721-transferFrom}."
      },
      "transferOwnership(address)": {
        "details": "Transfers ownership of the contract to a new account (`newOwner`). Can only be called by the current owner."
      }
    },
    "version": 1
  },
  "userdoc": {
    "kind": "user",
    "methods": {},
    "version": 1
  }
}